{
  "_format": "hh-sol-artifact-1",
  "contractName": "KlerosGTCRAdapter",
  "sourceName": "contracts/recipientRegistry/KlerosGTCRAdapter.sol",
  "abi": [
    {
      "inputs": [
        {
          "internalType": "contract IKlerosGTCR",
          "name": "_tcr",
          "type": "address"
        },
        {
          "internalType": "address",
          "name": "_controller",
          "type": "address"
        }
      ],
      "stateMutability": "nonpayable",
      "type": "constructor"
    },
    {
      "anonymous": false,
      "inputs": [
        {
          "indexed": true,
          "internalType": "bytes32",
          "name": "_tcrItemId",
          "type": "bytes32"
        },
        {
          "indexed": false,
          "internalType": "bytes",
          "name": "_metadata",
          "type": "bytes"
        },
        {
          "indexed": false,
          "internalType": "uint256",
          "name": "_index",
          "type": "uint256"
        },
        {
          "indexed": false,
          "internalType": "uint256",
          "name": "_timestamp",
          "type": "uint256"
        }
      ],
      "name": "RecipientAdded",
      "type": "event"
    },
    {
      "anonymous": false,
      "inputs": [
        {
          "indexed": true,
          "internalType": "bytes32",
          "name": "_tcrItemId",
          "type": "bytes32"
        },
        {
          "indexed": false,
          "internalType": "uint256",
          "name": "_timestamp",
          "type": "uint256"
        }
      ],
      "name": "RecipientRemoved",
      "type": "event"
    },
    {
      "inputs": [
        {
          "internalType": "bytes32",
          "name": "_tcrItemId",
          "type": "bytes32"
        }
      ],
      "name": "addRecipient",
      "outputs": [],
      "stateMutability": "nonpayable",
      "type": "function"
    },
    {
      "inputs": [],
      "name": "controller",
      "outputs": [
        {
          "internalType": "address",
          "name": "",
          "type": "address"
        }
      ],
      "stateMutability": "view",
      "type": "function"
    },
    {
      "inputs": [
        {
          "internalType": "uint256",
          "name": "_index",
          "type": "uint256"
        },
        {
          "internalType": "uint256",
          "name": "_startTime",
          "type": "uint256"
        },
        {
          "internalType": "uint256",
          "name": "_endTime",
          "type": "uint256"
        }
      ],
      "name": "getRecipientAddress",
      "outputs": [
        {
          "internalType": "address",
          "name": "",
          "type": "address"
        }
      ],
      "stateMutability": "view",
      "type": "function"
    },
    {
      "inputs": [],
      "name": "getRecipientCount",
      "outputs": [
        {
          "internalType": "uint256",
          "name": "",
          "type": "uint256"
        }
      ],
      "stateMutability": "view",
      "type": "function"
    },
    {
      "inputs": [],
      "name": "maxRecipients",
      "outputs": [
        {
          "internalType": "uint256",
          "name": "",
          "type": "uint256"
        }
      ],
      "stateMutability": "view",
      "type": "function"
    },
    {
      "inputs": [
        {
          "internalType": "bytes32",
          "name": "_tcrItemId",
          "type": "bytes32"
        }
      ],
      "name": "removeRecipient",
      "outputs": [],
      "stateMutability": "nonpayable",
      "type": "function"
    },
    {
      "inputs": [
        {
          "internalType": "uint256",
          "name": "_maxRecipients",
          "type": "uint256"
        }
      ],
      "name": "setMaxRecipients",
      "outputs": [
        {
          "internalType": "bool",
          "name": "",
          "type": "bool"
        }
      ],
      "stateMutability": "nonpayable",
      "type": "function"
    },
    {
      "inputs": [],
      "name": "tcr",
      "outputs": [
        {
          "internalType": "contract IKlerosGTCR",
          "name": "",
          "type": "address"
        }
      ],
      "stateMutability": "view",
      "type": "function"
    }
  ],
  "bytecode": "0x608060405234801561001057600080fd5b506040516110d83803806110d88339818101604052604081101561003357600080fd5b508051602090910151600580546001600160a01b039384166001600160a01b0319918216179091556000805493909216921691909117905561105e8061007a6000396000f3fe608060405234801561001057600080fd5b50600436106100785760003560e01c8063148ec9ab1461007d5780632d3105be146100ae57806362564ed4146100cd57806388a1307214610112578063af99b63f1461012c578063c438aeb514610134578063d7c9ebdd1461013c578063f77c479114610159575b600080fd5b61009a6004803603602081101561009357600080fd5b5035610161565b604080519115158252519081900360200190f35b6100cb600480360360208110156100c457600080fd5b50356101ca565b005b6100f6600480360360608110156100e357600080fd5b5080359060208101359060400135610445565b604080516001600160a01b039092168252519081900360200190f35b61011a6105ad565b60408051918252519081900360200190f35b61011a6105b3565b6100f66105bd565b6100cb6004803603602081101561015257600080fd5b50356105cc565b6100f661078a565b60006001548210156101a45760405162461bcd60e51b8152600401808060200182810382526040815260200180610f376040913960400191505060405180910390fd5b6000546001600160a01b031633146101be575060006101c5565b5060018181555b919050565b60055460408051634aac84e560e01b81526004810184905290516060926000926001600160a01b0390911691634aac84e5916024808201928692909190829003018186803b15801561021b57600080fd5b505afa15801561022f573d6000803e3d6000fd5b505050506040513d6000823e601f3d908101601f19168201604052606081101561025857600080fd5b8101908080516040519392919084600160201b82111561027757600080fd5b90830190602082018581111561028c57600080fd5b8251600160201b8111828201881017156102a557600080fd5b82525081516020918201929091019080838360005b838110156102d25781810151838201526020016102ba565b50505050905090810190601f1680156102ff5780820380516001836020036101000a031916815260200191505b50604052602001519294509192505060018214905061034f5760405162461bcd60e51b8152600401808060200182810382526028815260200180610fa36028913960400191505060405180910390fd5b606061036261035d84610799565b6107be565b905060006103838260018151811061037657fe5b60200260200101516108a6565b9050600061039186836108c6565b9050857fbae5f37225091eefc1da5f4cb316de5bfd9444361d10b0f69c55c2c3b25b7ff18683426040518080602001848152602001838152602001828103825285818151815260200191508051906020019080838360005b838110156104015781810151838201526020016103e9565b50505050905090810190601f16801561042e5780820380516001836020036101000a031916815260200191505b5094505050505060405180910390a2505050505050565b6000831580610455575060045484115b15610462575060006105a6565b60606004600186038154811061047457fe5b906000526020600020018054806020026020016040519081016040528092919081815260200182805480156104c857602002820191906000526020600020905b8154815260200190600101908083116104b4575b505050505090508051600014156104e35760009150506105a6565b80516000905b80156105a157600083600183038151811061050057fe5b60200260200101519050610512610e01565b50600081815260026020818152604092839020835160808101855281546001600160a01b031681526001820154928101929092529182015492810183905260039091015460608201529087101561056a575050610598565b606081015115801590610581575087816060015111155b156105935783955050505050506105a6565b519250505b600019016104e9565b509150505b9392505050565b60015481565b6003546004540390565b6005546001600160a01b031681565b60055460408051634aac84e560e01b81526004810184905290516000926001600160a01b031691634aac84e59160248083019286929190829003018186803b15801561061757600080fd5b505afa15801561062b573d6000803e3d6000fd5b505050506040513d6000823e601f3d908101601f19168201604052606081101561065457600080fd5b8101908080516040519392919084600160201b82111561067357600080fd5b90830190602082018581111561068857600080fd5b8251600160201b8111828201881017156106a157600080fd5b82525081516020918201929091019080838360005b838110156106ce5781810151838201526020016106b6565b50505050905090810190601f1680156106fb5780820380516001836020036101000a031916815260200191505b50604052602001519350508215915061074790505760405162461bcd60e51b815260040180806020018281038252602f815260200180610fcb602f913960400191505060405180910390fd5b61075082610b34565b60408051428152905183917fc678e7ee92280740c8b3be4826e92b29fb5477e2ddc3eb2e9ca45f74daa4972e919081900360200190a25050565b6000546001600160a01b031681565b6107a1610e32565b506040805180820190915281518152602082810190820152919050565b60606107c982610c13565b6107d257600080fd5b60006107dd83610c4d565b905060608167ffffffffffffffff811180156107f857600080fd5b5060405190808252806020026020018201604052801561083257816020015b61081f610e32565b8152602001906001900390816108175790505b50905060006108448560200151610ca5565b60208601510190506000805b8481101561089b5761086183610d08565b915060405180604001604052808381526020018481525084828151811061088457fe5b602090810291909101015291810191600101610850565b509195945050505050565b80516000906015146108b757600080fd5b6108c082610da1565b92915050565b600080600154116109085760405162461bcd60e51b815260040180806020018281038252602d815260200180610ead602d913960400191505060405180910390fd5b600083815260026020526040902060010154156109565760405162461bcd60e51b815260040180806020018281038252602f815260200180610ffa602f913960400191505060405180910390fd5b60045460018054600092919091019081116109f95760408051600180825281830190925291925082916060916020808301908036833701905050905085816000815181106109a057fe5b6020908102919091018101919091526004805460018101825560009190915282516109f2927f8a35acfbc15ff81a39ae7d344fd709f28e8600b4aa8c65c6b64bfe7fe36bd19b90920191840190610e4c565b5050610ac4565b600354610a375760405162461bcd60e51b815260040180806020018281038252602a815260200180610eda602a913960400191505060405180910390fd5b60038054600091906000198101908110610a4d57fe5b906000526020600020015490506003805480610a6557fe5b600190038181906000526020600020016000905590556002600082815260200190815260200160002060010154925060046001840381548110610aa457fe5b600091825260208083209091018054600181018255908352912001869055505b50604080516080810182526001600160a01b0380861682526020808301858152428486019081526000606086018181528b82526002948590529690209451855494166001600160a01b03199094169390931784555160018401559051908201559051600390910155905092915050565b600081815260026020526040902060010154610b815760405162461bcd60e51b8152600401808060200182810382526033815260200180610f046033913960400191505060405180910390fd5b60008181526002602052604090206003015415610bcf5760405162461bcd60e51b815260040180806020018281038252602c815260200180610f77602c913960400191505060405180910390fd5b600081815260026020526040812042600391820155805460018101825591527fc2575a0e9e593c00f959f8c92f12db2869c3395a3b0502d05e2516446f71f85b0155565b8051600090610c24575060006101c5565b6020820151805160001a9060c0821015610c43576000925050506101c5565b5060019392505050565b8051600090610c5e575060006101c5565b600080610c6e8460200151610ca5565b602085015185519181019250015b80821015610c9c57610c8d82610d08565b60019093019290910190610c7c565b50909392505050565b8051600090811a6080811015610cbf5760009150506101c5565b60b8811080610cda575060c08110801590610cda575060f881105b15610ce95760019150506101c5565b60c0811015610cfd5760b5190190506101c5565b60f5190190506101c5565b80516000908190811a6080811015610d235760019150610d9a565b60b8811015610d3857607e1981019150610d9a565b60c0811015610d655760b78103600185019450806020036101000a85510460018201810193505050610d9a565b60f8811015610d7a5760be1981019150610d9a565b60f78103600185019450806020036101000a855104600182018101935050505b5092915050565b805160009015801590610db657508151602110155b610dbf57600080fd5b6000610dce8360200151610ca5565b83516020808601518301805193945091849003929190831015610df857826020036101000a820491505b50949350505050565b604051806080016040528060006001600160a01b031681526020016000815260200160008152602001600081525090565b604051806040016040528060008152602001600081525090565b828054828255906000526020600020908101928215610e87579160200282015b82811115610e87578251825591602001919060010190610e6c565b50610e93929150610e97565b5090565b5b80821115610e935760008155600101610e9856fe526563697069656e7452656769737472793a20526563697069656e74206c696d6974206973206e6f7420736574526563697069656e7452656769737472793a20526563697069656e74206c696d69742072656163686564526563697069656e7452656769737472793a20526563697069656e74206973206e6f7420696e20746865207265676973747279526563697069656e7452656769737472793a204d6178206e756d626572206f6620726563697069656e74732063616e206e6f7420626520646563726561736564526563697069656e7452656769737472793a20526563697069656e7420616c72656164792072656d6f766564526563697069656e7452656769737472793a204974656d206e6f7420666f756e6420696e20544352526563697069656e7452656769737472793a204974656d206973206e6f742072656d6f7665642066726f6d20544352526563697069656e7452656769737472793a20526563697069656e7420616c72656164792072656769737465726564a26469706673582212200213759fac59d2ea83eaf5d03f550e198c2fa5832ffd507745750781e280a23464736f6c634300060c0033",
  "linkReferences": {},
  "deployedLinkReferences": {}
}