{
  "_format": "hh-sol-artifact-1",
  "contractName": "OptimisticRecipientRegistry",
  "sourceName": "contracts/recipientRegistry/OptimisticRecipientRegistry.sol",
  "abi": [
    {
      "inputs": [
        {
          "internalType": "uint256",
          "name": "_baseDeposit",
          "type": "uint256"
        },
        {
          "internalType": "uint256",
          "name": "_challengePeriodDuration",
          "type": "uint256"
        },
        {
          "internalType": "address",
          "name": "_controller",
          "type": "address"
        }
      ],
      "stateMutability": "nonpayable",
      "type": "constructor"
    },
    {
      "anonymous": false,
      "inputs": [
        {
          "indexed": true,
          "internalType": "address",
          "name": "previousOwner",
          "type": "address"
        },
        {
          "indexed": true,
          "internalType": "address",
          "name": "newOwner",
          "type": "address"
        }
      ],
      "name": "OwnershipTransferred",
      "type": "event"
    },
    {
      "anonymous": false,
      "inputs": [
        {
          "indexed": true,
          "internalType": "bytes32",
          "name": "_recipientId",
          "type": "bytes32"
        },
        {
          "indexed": true,
          "internalType": "enum OptimisticRecipientRegistry.RequestType",
          "name": "_type",
          "type": "uint8"
        },
        {
          "indexed": true,
          "internalType": "bool",
          "name": "_rejected",
          "type": "bool"
        },
        {
          "indexed": false,
          "internalType": "uint256",
          "name": "_recipientIndex",
          "type": "uint256"
        },
        {
          "indexed": false,
          "internalType": "uint256",
          "name": "_timestamp",
          "type": "uint256"
        }
      ],
      "name": "RequestResolved",
      "type": "event"
    },
    {
      "anonymous": false,
      "inputs": [
        {
          "indexed": true,
          "internalType": "bytes32",
          "name": "_recipientId",
          "type": "bytes32"
        },
        {
          "indexed": true,
          "internalType": "enum OptimisticRecipientRegistry.RequestType",
          "name": "_type",
          "type": "uint8"
        },
        {
          "indexed": false,
          "internalType": "address",
          "name": "_recipient",
          "type": "address"
        },
        {
          "indexed": false,
          "internalType": "string",
          "name": "_metadata",
          "type": "string"
        },
        {
          "indexed": false,
          "internalType": "uint256",
          "name": "_timestamp",
          "type": "uint256"
        }
      ],
      "name": "RequestSubmitted",
      "type": "event"
    },
    {
      "inputs": [
        {
          "internalType": "address",
          "name": "_recipient",
          "type": "address"
        },
        {
          "internalType": "string",
          "name": "_metadata",
          "type": "string"
        }
      ],
      "name": "addRecipient",
      "outputs": [],
      "stateMutability": "payable",
      "type": "function"
    },
    {
      "inputs": [],
      "name": "baseDeposit",
      "outputs": [
        {
          "internalType": "uint256",
          "name": "",
          "type": "uint256"
        }
      ],
      "stateMutability": "view",
      "type": "function"
    },
    {
      "inputs": [],
      "name": "challengePeriodDuration",
      "outputs": [
        {
          "internalType": "uint256",
          "name": "",
          "type": "uint256"
        }
      ],
      "stateMutability": "view",
      "type": "function"
    },
    {
      "inputs": [
        {
          "internalType": "bytes32",
          "name": "_recipientId",
          "type": "bytes32"
        },
        {
          "internalType": "address payable",
          "name": "_beneficiary",
          "type": "address"
        }
      ],
      "name": "challengeRequest",
      "outputs": [
        {
          "internalType": "bool",
          "name": "",
          "type": "bool"
        }
      ],
      "stateMutability": "nonpayable",
      "type": "function"
    },
    {
      "inputs": [],
      "name": "controller",
      "outputs": [
        {
          "internalType": "address",
          "name": "",
          "type": "address"
        }
      ],
      "stateMutability": "view",
      "type": "function"
    },
    {
      "inputs": [
        {
          "internalType": "bytes32",
          "name": "_recipientId",
          "type": "bytes32"
        }
      ],
      "name": "executeRequest",
      "outputs": [
        {
          "internalType": "bool",
          "name": "",
          "type": "bool"
        }
      ],
      "stateMutability": "nonpayable",
      "type": "function"
    },
    {
      "inputs": [
        {
          "internalType": "uint256",
          "name": "_index",
          "type": "uint256"
        },
        {
          "internalType": "uint256",
          "name": "_startTime",
          "type": "uint256"
        },
        {
          "internalType": "uint256",
          "name": "_endTime",
          "type": "uint256"
        }
      ],
      "name": "getRecipientAddress",
      "outputs": [
        {
          "internalType": "address",
          "name": "",
          "type": "address"
        }
      ],
      "stateMutability": "view",
      "type": "function"
    },
    {
      "inputs": [],
      "name": "getRecipientCount",
      "outputs": [
        {
          "internalType": "uint256",
          "name": "",
          "type": "uint256"
        }
      ],
      "stateMutability": "view",
      "type": "function"
    },
    {
      "inputs": [],
      "name": "maxRecipients",
      "outputs": [
        {
          "internalType": "uint256",
          "name": "",
          "type": "uint256"
        }
      ],
      "stateMutability": "view",
      "type": "function"
    },
    {
      "inputs": [],
      "name": "owner",
      "outputs": [
        {
          "internalType": "address",
          "name": "",
          "type": "address"
        }
      ],
      "stateMutability": "view",
      "type": "function"
    },
    {
      "inputs": [
        {
          "internalType": "bytes32",
          "name": "_recipientId",
          "type": "bytes32"
        }
      ],
      "name": "removeRecipient",
      "outputs": [],
      "stateMutability": "payable",
      "type": "function"
    },
    {
      "inputs": [],
      "name": "renounceOwnership",
      "outputs": [],
      "stateMutability": "nonpayable",
      "type": "function"
    },
    {
      "inputs": [
        {
          "internalType": "uint256",
          "name": "_baseDeposit",
          "type": "uint256"
        }
      ],
      "name": "setBaseDeposit",
      "outputs": [],
      "stateMutability": "nonpayable",
      "type": "function"
    },
    {
      "inputs": [
        {
          "internalType": "uint256",
          "name": "_challengePeriodDuration",
          "type": "uint256"
        }
      ],
      "name": "setChallengePeriodDuration",
      "outputs": [],
      "stateMutability": "nonpayable",
      "type": "function"
    },
    {
      "inputs": [
        {
          "internalType": "uint256",
          "name": "_maxRecipients",
          "type": "uint256"
        }
      ],
      "name": "setMaxRecipients",
      "outputs": [
        {
          "internalType": "bool",
          "name": "",
          "type": "bool"
        }
      ],
      "stateMutability": "nonpayable",
      "type": "function"
    },
    {
      "inputs": [
        {
          "internalType": "address",
          "name": "newOwner",
          "type": "address"
        }
      ],
      "name": "transferOwnership",
      "outputs": [],
      "stateMutability": "nonpayable",
      "type": "function"
    }
  ],
  "bytecode": "0x608060405234801561001057600080fd5b50604051611b24380380611b248339818101604052606081101561003357600080fd5b5080516020820151604090920151909190600061004e6100c5565b600080546001600160a01b0319166001600160a01b0383169081178255604051929350917f8be0079c531659141344cd1fd0a4f28419497f9722a3daafe3b4186f6b6457e0908290a350600692909255600755600180546001600160a01b0319166001600160a01b039092169190911790556100c9565b3390565b611a4c806100d86000396000f3fe6080604052600436106100c25760003560e01c806282a36d146100c7578063148ec9ab146100ee5780634458e6091461012c57806362564ed41461015857806369474625146101aa578063715018a6146101bf578063739b5384146101d457806388a13072146102525780638d62272e146102675780638da5cb5b146102a0578063af99b63f146102b5578063c22a933c146102ca578063d7c9ebdd146102f4578063e9c2416614610311578063f2fde38b1461033b578063f77c47911461036e575b600080fd5b3480156100d357600080fd5b506100dc610383565b60408051918252519081900360200190f35b3480156100fa57600080fd5b506101186004803603602081101561011157600080fd5b5035610389565b604080519115158252519081900360200190f35b34801561013857600080fd5b506101566004803603602081101561014f57600080fd5b50356103f4565b005b34801561016457600080fd5b5061018e6004803603606081101561017b57600080fd5b5080359060208101359060400135610451565b604080516001600160a01b039092168252519081900360200190f35b3480156101b657600080fd5b506100dc6105b8565b3480156101cb57600080fd5b506101566105be565b610156600480360360408110156101ea57600080fd5b6001600160a01b038235169190810190604081016020820135600160201b81111561021457600080fd5b82018360208201111561022657600080fd5b803590602001918460018302840111600160201b8311171561024757600080fd5b509092509050610660565b34801561025e57600080fd5b506100dc6109a5565b34801561027357600080fd5b506101186004803603604081101561028a57600080fd5b50803590602001356001600160a01b03166109ab565b3480156102ac57600080fd5b5061018e610c29565b3480156102c157600080fd5b506100dc610c38565b3480156102d657600080fd5b50610156600480360360208110156102ed57600080fd5b5035610c42565b6101566004803603602081101561030a57600080fd5b5035610c9f565b34801561031d57600080fd5b506101186004803603602081101561033457600080fd5b5035610ef6565b34801561034757600080fd5b506101566004803603602081101561035e57600080fd5b50356001600160a01b03166111bc565b34801561037a57600080fd5b5061018e6112b4565b60075481565b60006002548210156103cc5760405162461bcd60e51b81526004018080602001828103825260408152602001806118ac6040913960400191505060405180910390fd5b6001546001600160a01b031633146103e6575060006103ef565b50600281905560015b919050565b6103fc6112c3565b6000546001600160a01b0390811691161461044c576040805162461bcd60e51b8152602060048201819052602482015260008051602061199f833981519152604482015290519081900360640190fd5b600755565b6000831580610461575060055484115b1561046e575060006105b1565b60606005600186038154811061048057fe5b906000526020600020018054806020026020016040519081016040528092919081815260200182805480156104d457602002820191906000526020600020905b8154815260200190600101908083116104c0575b505050505090508051600014156104ef5760009150506105b1565b80516000905b80156105ac57600083600183038151811061050c57fe5b6020026020010151905061051e611612565b50600081815260036020818152604092839020835160808101855281546001600160a01b031681526001820154928101929092526002810154938201849052909101546060820152908710156105755750506105a3565b60608101511580159061058c575087816060015111155b1561059e5783955050505050506105b1565b519250505b600019016104f5565b509150505b9392505050565b60065481565b6105c66112c3565b6000546001600160a01b03908116911614610616576040805162461bcd60e51b8152602060048201819052602482015260008051602061199f833981519152604482015290519081900360640190fd5b600080546040516001600160a01b03909116907f8be0079c531659141344cd1fd0a4f28419497f9722a3daafe3b4186f6b6457e0908390a3600080546001600160a01b0319169055565b6001600160a01b0383166106a55760405162461bcd60e51b815260040180806020018281038252602c8152602001806118ec602c913960400191505060405180910390fd5b806106e15760405162461bcd60e51b81526004018080602001828103825260308152602001806117a16030913960400191505060405180910390fd5b600083838360405160200180846001600160a01b031660601b8152601401838380828437808301925050509350505050604051602081830303815290604052805190602001209050600360008281526020019081526020016000206001015460001461077e5760405162461bcd60e51b815260040180806020018281038252602f8152602001806119e8602f913960400191505060405180910390fd5b600081815260086020526040902060010154156107cc5760405162461bcd60e51b815260040180806020018281038252602c815260200180611918602c913960400191505060405180910390fd5b600654341461080c5760405162461bcd60e51b815260040180806020018281038252602b81526020018061184e602b913960400191505060405180910390fd5b6040805160c081019091528060008152602001336001600160a01b03168152602001428152602001348152602001856001600160a01b0316815260200184848080601f01602080910402602001604051908101604052809392919081815260200183838082843760009201829052509390945250508381526008602052604090208251815491925090829060ff1916600183818111156108a857fe5b02179055506020828101518254610100600160a81b0319166101006001600160a01b0392831602178355604084015160018401556060840151600284015560808401516003840180546001600160a01b0319169190921617905560a083015180516109199260048501920190611643565b50600091506109259050565b817fbb4ad318e5170357f8e7d25deefe5cf02bc8182cbb95600c22a1105978a8f1b88686864260405180856001600160a01b03168152602001806020018381526020018281038252858582818152602001925080828437600083820152604051601f909101601f191690920182900397509095505050505050a350505050565b60025481565b60006109b56112c3565b6000546001600160a01b03908116911614610a05576040805162461bcd60e51b8152602060048201819052602482015260008051602061199f833981519152604482015290519081900360640190fd5b610a0d6116c1565b60008481526008602052604090819020815160c081019092528054829060ff166001811115610a3857fe5b6001811115610a4357fe5b815281546001600160a01b036101009182900481166020808501919091526001808601546040808701919091526002808801546060880152600388015490941660808701526004870180548251601f60001995831615909802949094011694909404948501839004830282018301905283815260a0909401939290830182828015610b0f5780601f10610ae457610100808354040283529160200191610b0f565b820191906000526020600020905b815481529060010190602001808311610af257829003601f168201915b5050505050815250509050806040015160001415610b5e5760405162461bcd60e51b81526004018080602001828103825260298152602001806119bf6029913960400191505060405180910390fd5b600084815260086020526040812080546001600160a81b031916815560018101829055600281018290556003810180546001600160a01b031916905590610ba8600483018261170a565b505060608101516040516000916001600160a01b0386169181156108fc02919084818181858888f18651909550600194509250505081811115610be757fe5b6040805160008152426020820152815189927f863e10260d0b36e06a2dee07c61c59e95209f121464f054ec556d22e958b1ef2928290030190a4949350505050565b6000546001600160a01b031690565b6004546005540390565b610c4a6112c3565b6000546001600160a01b03908116911614610c9a576040805162461bcd60e51b8152602060048201819052602482015260008051602061199f833981519152604482015290519081900360640190fd5b600655565b600081815260036020526040902060010154610cec5760405162461bcd60e51b81526004018080602001828103825260338152602001806118796033913960400191505060405180910390fd5b6000818152600360208190526040909120015415610d3b5760405162461bcd60e51b815260040180806020018281038252602c815260200180611973602c913960400191505060405180910390fd5b60008181526008602052604090206001015415610d895760405162461bcd60e51b815260040180806020018281038252602c815260200180611918602c913960400191505060405180910390fd5b6006543414610dc95760405162461bcd60e51b815260040180806020018281038252602b81526020018061184e602b913960400191505060405180910390fd5b6040805160c08101825260018082523360208084019190915242838501523460608401526000608084018190528451808301865281815260a085015285815260089091529290922081518154929391929091839160ff1916908381811115610e2d57fe5b02179055506020828101518254610100600160a81b0319166101006001600160a01b0392831602178355604084015160018401556060840151600284015560808401516003840180546001600160a01b0319169190921617905560a08301518051610e9e9260048501920190611643565b5060019150610eaa9050565b6040805160008082524282840152606060208301819052820152905183917fbb4ad318e5170357f8e7d25deefe5cf02bc8182cbb95600c22a1105978a8f1b8919081900360a00190a350565b6000610f006116c1565b60008381526008602052604090819020815160c081019092528054829060ff166001811115610f2b57fe5b6001811115610f3657fe5b815281546001600160a01b036101009182900481166020808501919091526001808601546040808701919091526002808801546060880152600388015490941660808701526004870180548251601f60001995831615909802949094011694909404948501839004830282018301905283815260a09094019392908301828280156110025780601f10610fd757610100808354040283529160200191611002565b820191906000526020600020905b815481529060010190602001808311610fe557829003601f168201915b50505050508152505090508060400151600014156110515760405162461bcd60e51b81526004018080602001828103825260298152602001806119bf6029913960400191505060405180910390fd5b611059610c29565b6001600160a01b0316336001600160a01b0316146110b8576007548160400151420310156110b85760405162461bcd60e51b815260040180806020018281038252602f815260200180611944602f913960400191505060405180910390fd5b60006001825160018111156110c957fe5b14156110dd576110d8846112c7565b6110ee565b6110eb8483608001516113a8565b90505b600084815260086020526040812080546001600160a81b031916815560018101829055600281018290556003810180546001600160a01b031916905590611138600483018261170a565b5050602082015160608301516040516000926001600160a01b03169180156108fc029184818181858888f187519095506000945092505050600181111561117b57fe5b60408051858152426020820152815189927f863e10260d0b36e06a2dee07c61c59e95209f121464f054ec556d22e958b1ef2928290030190a4949350505050565b6111c46112c3565b6000546001600160a01b03908116911614611214576040805162461bcd60e51b8152602060048201819052602482015260008051602061199f833981519152604482015290519081900360640190fd5b6001600160a01b0381166112595760405162461bcd60e51b81526004018080602001828103825260268152602001806117fe6026913960400191505060405180910390fd5b600080546040516001600160a01b03808516939216917f8be0079c531659141344cd1fd0a4f28419497f9722a3daafe3b4186f6b6457e091a3600080546001600160a01b0319166001600160a01b0392909216919091179055565b6001546001600160a01b031681565b3390565b6000818152600360205260409020600101546113145760405162461bcd60e51b81526004018080602001828103825260338152602001806118796033913960400191505060405180910390fd5b60008181526003602081905260409091200154156113635760405162461bcd60e51b815260040180806020018281038252602c815260200180611973602c913960400191505060405180910390fd5b60008181526003602081905260408220429101556004805460018101825591527f8a35acfbc15ff81a39ae7d344fd709f28e8600b4aa8c65c6b64bfe7fe36bd19b0155565b600080600254116113ea5760405162461bcd60e51b815260040180806020018281038252602d8152602001806117d1602d913960400191505060405180910390fd5b600083815260036020526040902060010154156114385760405162461bcd60e51b815260040180806020018281038252602f8152602001806119e8602f913960400191505060405180910390fd5b6005546002546000916001019081116114d957604080516001808252818301909252919250829160609160208083019080368337019050509050858160008151811061148057fe5b6020908102919091018101919091526005805460018101825560009190915282516114d2927f036b6384b5eca791c62761152d0c79bb0604c104a5fb6f4eb0703f3154bb3db090920191840190611751565b50506115a4565b6004546115175760405162461bcd60e51b815260040180806020018281038252602a815260200180611824602a913960400191505060405180910390fd5b6004805460009190600019810190811061152d57fe5b90600052602060002001549050600480548061154557fe5b60019003818190600052602060002001600090559055600360008281526020019081526020016000206001015492506005600184038154811061158457fe5b600091825260208083209091018054600181018255908352912001869055505b50604080516080810182526001600160a01b0380861682526020808301858152428486019081526000606086018181528b82526003948590529690209451855494166001600160a01b0319909416939093178455516001840155905160028301559151910155905092915050565b604051806080016040528060006001600160a01b031681526020016000815260200160008152602001600081525090565b828054600181600116156101000203166002900490600052602060002090601f016020900481019282601f1061168457805160ff19168380011785556116b1565b828001600101855582156116b1579182015b828111156116b1578251825591602001919060010190611696565b506116bd92915061178b565b5090565b6040805160c08101909152806000815260200160006001600160a01b03168152602001600081526020016000815260200160006001600160a01b03168152602001606081525090565b50805460018160011615610100020316600290046000825580601f10611730575061174e565b601f01602090049060005260206000209081019061174e919061178b565b50565b8280548282559060005260206000209081019282156116b157916020028201828111156116b1578251825591602001919060010190611696565b5b808211156116bd576000815560010161178c56fe526563697069656e7452656769737472793a204d6574616461746120696e666f20697320656d70747920737472696e67526563697069656e7452656769737472793a20526563697069656e74206c696d6974206973206e6f74207365744f776e61626c653a206e6577206f776e657220697320746865207a65726f2061646472657373526563697069656e7452656769737472793a20526563697069656e74206c696d69742072656163686564526563697069656e7452656769737472793a20496e636f7272656374206465706f73697420616d6f756e74526563697069656e7452656769737472793a20526563697069656e74206973206e6f7420696e20746865207265676973747279526563697069656e7452656769737472793a204d6178206e756d626572206f6620726563697069656e74732063616e206e6f7420626520646563726561736564526563697069656e7452656769737472793a20526563697069656e742061646472657373206973207a65726f526563697069656e7452656769737472793a205265717565737420616c7265616479207375626d6974746564526563697069656e7452656769737472793a204368616c6c656e676520706572696f64206973206e6f74206f766572526563697069656e7452656769737472793a20526563697069656e7420616c72656164792072656d6f7665644f776e61626c653a2063616c6c6572206973206e6f7420746865206f776e6572526563697069656e7452656769737472793a205265717565737420646f6573206e6f74206578697374526563697069656e7452656769737472793a20526563697069656e7420616c72656164792072656769737465726564a26469706673582212209901cd414ea1584c5da4c50ec137bc2bb6621285854a66f26874033dee0b763864736f6c634300060c0033",
  "linkReferences": {},
  "deployedLinkReferences": {}
}