{
  "_format": "hh-sol-artifact-1",
  "contractName": "SimpleRecipientRegistry",
  "sourceName": "contracts/recipientRegistry/SimpleRecipientRegistry.sol",
  "abi": [
    {
      "inputs": [
        {
          "internalType": "address",
          "name": "_controller",
          "type": "address"
        }
      ],
      "stateMutability": "nonpayable",
      "type": "constructor"
    },
    {
      "anonymous": false,
      "inputs": [
        {
          "indexed": true,
          "internalType": "address",
          "name": "previousOwner",
          "type": "address"
        },
        {
          "indexed": true,
          "internalType": "address",
          "name": "newOwner",
          "type": "address"
        }
      ],
      "name": "OwnershipTransferred",
      "type": "event"
    },
    {
      "anonymous": false,
      "inputs": [
        {
          "indexed": true,
          "internalType": "bytes32",
          "name": "_recipientId",
          "type": "bytes32"
        },
        {
          "indexed": false,
          "internalType": "address",
          "name": "_recipient",
          "type": "address"
        },
        {
          "indexed": false,
          "internalType": "string",
          "name": "_metadata",
          "type": "string"
        },
        {
          "indexed": false,
          "internalType": "uint256",
          "name": "_index",
          "type": "uint256"
        },
        {
          "indexed": false,
          "internalType": "uint256",
          "name": "_timestamp",
          "type": "uint256"
        }
      ],
      "name": "RecipientAdded",
      "type": "event"
    },
    {
      "anonymous": false,
      "inputs": [
        {
          "indexed": true,
          "internalType": "bytes32",
          "name": "_recipientId",
          "type": "bytes32"
        },
        {
          "indexed": false,
          "internalType": "uint256",
          "name": "_timestamp",
          "type": "uint256"
        }
      ],
      "name": "RecipientRemoved",
      "type": "event"
    },
    {
      "inputs": [
        {
          "internalType": "address",
          "name": "_recipient",
          "type": "address"
        },
        {
          "internalType": "string",
          "name": "_metadata",
          "type": "string"
        }
      ],
      "name": "addRecipient",
      "outputs": [],
      "stateMutability": "nonpayable",
      "type": "function"
    },
    {
      "inputs": [],
      "name": "controller",
      "outputs": [
        {
          "internalType": "address",
          "name": "",
          "type": "address"
        }
      ],
      "stateMutability": "view",
      "type": "function"
    },
    {
      "inputs": [
        {
          "internalType": "uint256",
          "name": "_index",
          "type": "uint256"
        },
        {
          "internalType": "uint256",
          "name": "_startTime",
          "type": "uint256"
        },
        {
          "internalType": "uint256",
          "name": "_endTime",
          "type": "uint256"
        }
      ],
      "name": "getRecipientAddress",
      "outputs": [
        {
          "internalType": "address",
          "name": "",
          "type": "address"
        }
      ],
      "stateMutability": "view",
      "type": "function"
    },
    {
      "inputs": [],
      "name": "getRecipientCount",
      "outputs": [
        {
          "internalType": "uint256",
          "name": "",
          "type": "uint256"
        }
      ],
      "stateMutability": "view",
      "type": "function"
    },
    {
      "inputs": [],
      "name": "maxRecipients",
      "outputs": [
        {
          "internalType": "uint256",
          "name": "",
          "type": "uint256"
        }
      ],
      "stateMutability": "view",
      "type": "function"
    },
    {
      "inputs": [],
      "name": "owner",
      "outputs": [
        {
          "internalType": "address",
          "name": "",
          "type": "address"
        }
      ],
      "stateMutability": "view",
      "type": "function"
    },
    {
      "inputs": [
        {
          "internalType": "bytes32",
          "name": "_recipientId",
          "type": "bytes32"
        }
      ],
      "name": "removeRecipient",
      "outputs": [],
      "stateMutability": "nonpayable",
      "type": "function"
    },
    {
      "inputs": [],
      "name": "renounceOwnership",
      "outputs": [],
      "stateMutability": "nonpayable",
      "type": "function"
    },
    {
      "inputs": [
        {
          "internalType": "uint256",
          "name": "_maxRecipients",
          "type": "uint256"
        }
      ],
      "name": "setMaxRecipients",
      "outputs": [
        {
          "internalType": "bool",
          "name": "",
          "type": "bool"
        }
      ],
      "stateMutability": "nonpayable",
      "type": "function"
    },
    {
      "inputs": [
        {
          "internalType": "address",
          "name": "newOwner",
          "type": "address"
        }
      ],
      "name": "transferOwnership",
      "outputs": [],
      "stateMutability": "nonpayable",
      "type": "function"
    }
  ],
  "bytecode": "0x608060405234801561001057600080fd5b50604051610e90380380610e908339818101604052602081101561003357600080fd5b5051600061003f6100ae565b600080546001600160a01b0319166001600160a01b0383169081178255604051929350917f8be0079c531659141344cd1fd0a4f28419497f9722a3daafe3b4186f6b6457e0908290a350600180546001600160a01b0319166001600160a01b03929092169190911790556100b2565b3390565b610dcf806100c16000396000f3fe608060405234801561001057600080fd5b506004361061008e5760003560e01c8063148ec9ab1461009357806362564ed4146100c4578063715018a614610109578063739b53841461011357806388a13072146101915780638da5cb5b146101ab578063af99b63f146101b3578063d7c9ebdd146101bb578063f2fde38b146101d8578063f77c4791146101fe575b600080fd5b6100b0600480360360208110156100a957600080fd5b5035610206565b604080519115158252519081900360200190f35b6100ed600480360360608110156100da57600080fd5b5080359060208101359060400135610271565b604080516001600160a01b039092168252519081900360200190f35b6101116103d8565b005b6101116004803603604081101561012957600080fd5b6001600160a01b038235169190810190604081016020820135600160201b81111561015357600080fd5b82018360208201111561016557600080fd5b803590602001918460018302840111600160201b8311171561018657600080fd5b50909250905061047a565b610199610632565b60408051918252519081900360200190f35b6100ed610638565b610199610647565b610111600480360360208110156101d157600080fd5b5035610651565b610111600480360360208110156101ee57600080fd5b50356001600160a01b03166106eb565b6100ed6107e3565b60006002548210156102495760405162461bcd60e51b8152600401808060200182810382526040815260200180610cb36040913960400191505060405180910390fd5b6001546001600160a01b031633146102635750600061026c565b50600281905560015b919050565b6000831580610281575060055484115b1561028e575060006103d1565b6060600560018603815481106102a057fe5b906000526020600020018054806020026020016040519081016040528092919081815260200182805480156102f457602002820191906000526020600020905b8154815260200190600101908083116102e0575b5050505050905080516000141561030f5760009150506103d1565b80516000905b80156103cc57600083600183038151811061032c57fe5b6020026020010151905061033e610b41565b50600081815260036020818152604092839020835160808101855281546001600160a01b031681526001820154928101929092526002810154938201849052909101546060820152908710156103955750506103c3565b6060810151158015906103ac575087816060015111155b156103be5783955050505050506103d1565b519250505b60001901610315565b509150505b9392505050565b6103e06107f2565b6000546001600160a01b03908116911614610430576040805162461bcd60e51b81526020600482018190526024820152600080516020610d4b833981519152604482015290519081900360640190fd5b600080546040516001600160a01b03909116907f8be0079c531659141344cd1fd0a4f28419497f9722a3daafe3b4186f6b6457e0908390a3600080546001600160a01b0319169055565b6104826107f2565b6000546001600160a01b039081169116146104d2576040805162461bcd60e51b81526020600482018190526024820152600080516020610d4b833981519152604482015290519081900360640190fd5b6001600160a01b0383166105175760405162461bcd60e51b815260040180806020018281038252602c815260200180610cf3602c913960400191505060405180910390fd5b806105535760405162461bcd60e51b8152600401808060200182810382526030815260200180610bd36030913960400191505060405180910390fd5b600083838360405160200180846001600160a01b031660601b815260140183838082843780830192505050935050505060405160208183030381529060405280519060200120905060006105a782866107f6565b9050817fddc3968b1ce25baf13504e6d2de09bbf72f4b32b9d80e2f4914842f0f9217b0d868686854260405180866001600160a01b03168152602001806020018481526020018381526020018281038252868682818152602001925080828437600083820152604051601f909101601f19169092018290039850909650505050505050a25050505050565b60025481565b6000546001600160a01b031690565b6004546005540390565b6106596107f2565b6000546001600160a01b039081169116146106a9576040805162461bcd60e51b81526020600482018190526024820152600080516020610d4b833981519152604482015290519081900360640190fd5b6106b281610a60565b60408051428152905182917fc678e7ee92280740c8b3be4826e92b29fb5477e2ddc3eb2e9ca45f74daa4972e919081900360200190a250565b6106f36107f2565b6000546001600160a01b03908116911614610743576040805162461bcd60e51b81526020600482018190526024820152600080516020610d4b833981519152604482015290519081900360640190fd5b6001600160a01b0381166107885760405162461bcd60e51b8152600401808060200182810382526026815260200180610c306026913960400191505060405180910390fd5b600080546040516001600160a01b03808516939216917f8be0079c531659141344cd1fd0a4f28419497f9722a3daafe3b4186f6b6457e091a3600080546001600160a01b0319166001600160a01b0392909216919091179055565b6001546001600160a01b031681565b3390565b600080600254116108385760405162461bcd60e51b815260040180806020018281038252602d815260200180610c03602d913960400191505060405180910390fd5b600083815260036020526040902060010154156108865760405162461bcd60e51b815260040180806020018281038252602f815260200180610d6b602f913960400191505060405180910390fd5b6005546002546000916001019081116109275760408051600180825281830190925291925082916060916020808301908036833701905050905085816000815181106108ce57fe5b602090810291909101810191909152600580546001810182556000919091528251610920927f036b6384b5eca791c62761152d0c79bb0604c104a5fb6f4eb0703f3154bb3db090920191840190610b72565b50506109f2565b6004546109655760405162461bcd60e51b815260040180806020018281038252602a815260200180610c56602a913960400191505060405180910390fd5b6004805460009190600019810190811061097b57fe5b90600052602060002001549050600480548061099357fe5b6001900381819060005260206000200160009055905560036000828152602001908152602001600020600101549250600560018403815481106109d257fe5b600091825260208083209091018054600181018255908352912001869055505b50604080516080810182526001600160a01b0380861682526020808301858152428486019081526000606086018181528b82526003948590529690209451855494166001600160a01b0319909416939093178455516001840155905160028301559151910155905092915050565b600081815260036020526040902060010154610aad5760405162461bcd60e51b8152600401808060200182810382526033815260200180610c806033913960400191505060405180910390fd5b6000818152600360208190526040909120015415610afc5760405162461bcd60e51b815260040180806020018281038252602c815260200180610d1f602c913960400191505060405180910390fd5b60008181526003602081905260408220429101556004805460018101825591527f8a35acfbc15ff81a39ae7d344fd709f28e8600b4aa8c65c6b64bfe7fe36bd19b0155565b604051806080016040528060006001600160a01b031681526020016000815260200160008152602001600081525090565b828054828255906000526020600020908101928215610bad579160200282015b82811115610bad578251825591602001919060010190610b92565b50610bb9929150610bbd565b5090565b5b80821115610bb95760008155600101610bbe56fe526563697069656e7452656769737472793a204d6574616461746120696e666f20697320656d70747920737472696e67526563697069656e7452656769737472793a20526563697069656e74206c696d6974206973206e6f74207365744f776e61626c653a206e6577206f776e657220697320746865207a65726f2061646472657373526563697069656e7452656769737472793a20526563697069656e74206c696d69742072656163686564526563697069656e7452656769737472793a20526563697069656e74206973206e6f7420696e20746865207265676973747279526563697069656e7452656769737472793a204d6178206e756d626572206f6620726563697069656e74732063616e206e6f7420626520646563726561736564526563697069656e7452656769737472793a20526563697069656e742061646472657373206973207a65726f526563697069656e7452656769737472793a20526563697069656e7420616c72656164792072656d6f7665644f776e61626c653a2063616c6c6572206973206e6f7420746865206f776e6572526563697069656e7452656769737472793a20526563697069656e7420616c72656164792072656769737465726564a2646970667358221220dc84d65184ec802042f61540ffe4c33a3df58f40e241f4b2a4a7a33cebabfa4564736f6c634300060c0033",
  "linkReferences": {},
  "deployedLinkReferences": {}
}